:020000040800F2
:1000000018040020A90200080903000809030008D9
:1000100009030008090300080903000800000000A4
:1000200000000000000000000000000009030008BC
:100030000903000800000000090300080903000884
:100040000903000809030008090300080903000860
:100050000903000809030008090300080903000850
:10006000A5090008ED090008390A0008090300087D
:100070000903000809030008090300080903000830
:100080000903000809030008090300080903000820
:10009000090300080903000809030008810A000891
:1000A0000903000809030008090300080903000800
:1000B00009030008090300080903000809030008F0
:1000C00009030008090300080903000809030008E0
:1000D00009030008090300080903000809030008D0
:1000E00009030008090300080903000809030008C0
:1000F00009030008090300080903000809030008B0
:10010000090300080903000809030008090300089F
:10011000090300080903000809030008090300088F
:10012000090300080903000809030008090300087F
:100130005FF808F180B500AF154B154A126842F020
:1001400001021A60124A124B5968124B0B4053605D
:100150000F4A0F4B1B6823F0847323F48033136022
:100160000B4B0B4A126822F480221A60084B084A93
:10017000526822F4FE025A60054B4FF41F029A6047
:1001800000F00CF8044B4FF000629A6080BD00BF95
:10019000001002400000FFF800ED00E080B500AF65
:1001A00000F002F880BD00BF80B483B000AF002330
:1001B0007B6000233B603A4B394A126842F480323C
:1001C0001A60374B1B6803F400333B607B680133D4
:1001D0007B603B68002B03D17B68B3F5A06FF0D147
:1001E0002F4B1B6803F40033002B02D001233B602C
:1001F00001E000233B603B68012B4BD1294B294A8E
:10020000126842F010021A60264B264A126822F049
:1002100003021A60234B234A126842F002021A605A
:100220001F4B1F4A52685A601D4B1D4A52685A6044
:100230001B4B1B4A526842F480625A60184B184AA2
:10024000526822F47C125A60154B154A526842F4E7
:10025000E8125A60124B124A126842F080721A6019
:1002600000BF0F4B1B6803F00073002BF9D00C4B41
:100270000B4A526822F003025A60094B084A52683E
:1002800042F002025A6000BF054B5B6803F00C03AA
:10029000082BF9D10C37BD465DF8047B704700BFD1
:1002A000001002400020024080B582B000AF114B28
:1002B0007B60114B3B6007E03B681A1D3A607A682F
:1002C000111D796012681A603A680C4B9A42F3D398
:1002D0000B480C494FF000028842B8BF40F8042B8D
:1002E000FFF6FAAFFFF726FF00F028F90837BD4602
:1002F00080BD00BF880B0008000000200000002027
:10030000000000201400002080B400AFFEE700BF12
:1003100080B489B000AF786039600023FB610023AE
:100320003B610023BB610023FB6000237B61002352
:10033000BB603B68DB7803F00F03FB613B68DB7855
:1003400003F01003002B04D03B689B78FA69134339
:10035000FB613B681B88DBB2002B44D07B681B68C9
:100360007B610023BB6138E0BB69012202FA03F321
:10037000FB603B681B881A46FB6813403B613A6987
:10038000FB689A4226D1BB699B00FB60FB680F2289
:1003900002FA03F3BB60BB68DB437A6913407B61FD
:1003A000FB68FA6902FA03F37A6913437B613B68DD
:1003B000DB78282B05D1BB6901229A407B685A6102
:1003C00008E03B68DB78482B04D1BB6901229A40E6
:1003D0007B681A61BB690133BB61BB69072BC3D959
:1003E0007B687A691A603B681B88FF2B46D97B685B
:1003F0005B687B610023BB613AE0BB690833012283
:1004000002FA03F3FB603B681B881A46FB68134043
:100410003B613A69FB689A4227D1BB699B00FB604C
:10042000FB680F2202FA03F3BB60BB68DB437A6907
:1004300013407B61FB68FA6902FA03F37A6913439C
:100440007B613B68DB78282B05D1BB69083301222F
:100450009A407B685A613B68DB78482B05D1BB69C1
:10046000083301229A407B681A61BB690133BB6182
:10047000BB69072BC1D97B687A695A602437BD46AE
:100480005DF8047B704700BF80B483B000AF786034
:100490000B467B807A887B681A610C37BD465DF815
:1004A000047B704780B483B000AF78600B467B80DC
:1004B0007A887B685A610C37BD465DF8047B7047CB
:1004C00090B484B000AF02460B46FA71BB710023B2
:1004D000FB60BB7903F003039B000F2202FA03F3D6
:1004E000FB60154BBA799208D2B21349B8798008EB
:1004F000C0B2023051F82000F968C943014002320D
:1005000043F822100C4BBA799208D2B20A49B87952
:100510008008C0B2023051F82000FC79B97901F0AE
:100520000301890004FA01F10143023243F8221069
:100530001037BD4690BC70470000014080B500AF49
:1005400000F0C8F800F062F900F0A4F900F0E6F954
:1005500000F018F9FEE700BF80B483B000AF786008
:100560000B46FB70FB78002B06D0094B084A9169BB
:100570007A680A439A6106E0054B054A91697A68F0
:10058000D2430A409A610C37BD465DF8047B704740
:100590000010024080B485B000AF78600023FB609B
:1005A000324BFB607B689B79002B4DD02F4B2F4A41
:1005B00011687A681268D2430A401A602B4B2B4AA2
:1005C00051687A681268D2430A405A607B681B7986
:1005D000FA681344FB60FB68FA6811687A6812686D
:1005E0000A431A60214B214A91687A681268D24303
:1005F0000A409A601D4B1D4AD1687A681268D2433E
:100600000A40DA607B685B79102B0ED1174B174AD2
:1006100091687A6812680A439A60144B134AD16849
:100620007A6812680A43DA601BE0104BFB607B6853
:100630005B79FA681344FB60FB68FA6811687A68B2
:1006400012680A431A600CE07B681B79FA6813444D
:10065000FB60FB68FA6811687A681268D2430A4046
:100660001A601437BD465DF8047B704700040140F2
:1006700080B485B000AF78600023FB730023BB60BB
:100680000C4B1A687B681340BB600A4B5A697B6845
:100690001340002B05D0BB68002B02D00123FB7355
:1006A00001E00023FB73FB7B18461437BD465DF861
:1006B000047B70470004014080B483B000AF7860D1
:1006C000034B7A685A610C37BD465DF8047B70476E
:1006D0000004014080B582B000AF30200121FFF757
:1006E0003BFF0323BB711023FB714023BB803B1DE9
:1006F00014481946FFF70CFE0323BB711023FB714E
:100700008023BB803B1D0F481946FFF701FE0323E2
:10071000BB711023FB714FF40053BB803B1D0A4893
:100720001946FFF7F5FD0323BB711023FB7140232E
:10073000BB803B1D04481946FFF7EAFD0837BD465C
:1007400080BD00BF001001400014014080B582B0A0
:1007500000AF78600B467B807B8878681946FFF78E
:1007600093FE0837BD4680BD80B582B000AF78608B
:100770000B467B807B8878681946FFF793FE083725
:10078000BD4680BD80B500AF40200121FFF7E4FEEB
:10079000194B0422DA70184B20221A801748164988
:1007A000FFF7B6FD01200121FFF7D6FE0420052149
:1007B000FFF786FE124B20221A60114B00221A719D
:1007C0000F4B0C225A710E4B01229A710C48FFF705
:1007D000E1FE0C4B17221A700A4B0F225A70094B7C
:1007E0000F229A70074B0122DA70064800F06CF96C
:1007F000054B00221A7080BD040000200018014043
:1008000008000020100000200000002080B500AF8C
:1008100040200121FFF7A0FE194B4822DA70184B47
:1008200004221A8017481649FFF772FD01200121A2
:10083000FFF792FE04200221FFF742FE124B042232
:100840001A60114B00221A710F4B0C225A710E4B79
:1008500001229A710C48FFF79DFE0C4B08221A707A
:100860000A4B0F225A70094B0F229A70074B012234
:10087000DA70064800F028F9054B00221A7080BD96
:100880000400002000180140080000201000002093
:100890000300002080B500AF40200121FFF75CFE7F
:1008A000194B4822DA70184B08221A80174816494B
:1008B000FFF72EFD01200121FFF74EFE042003214A
:1008C000FFF7FEFD124B08221A60114B00221A712D
:1008D0000F4B0C225A710E4B01229A710C48FFF7F4
:1008E00059FE0C4B09221A700A4B0F225A70094B01
:1008F0000F229A70074B0122DA70064800F0E4F8E4
:10090000054B00221A7080BD040000200018014031
:1009100008000020100000200200002080B500AF79
:1009200040200121FFF718FE194B0422DA70184B02
:1009300010221A8017481649FFF7EAFC012001210E
:10094000FFF70AFE04200421FFF7BAFD124B102224
:100950001A60114B00221A710F4B0C225A710E4B68
:1009600001229A710C48FFF715FE0C4B0A221A70EF
:100970000A4B0F225A70094B0F229A70074B012223
:10098000DA70064800F0A0F8054B00221A7080BD0E
:100990000400002000180140080000201000002082
:1009A0000300002080B500AF0420FFF761FE03467E
:1009B000002B15D00B4B1B78002B07D10A48402188
:1009C000FFF7C4FE074B01221A7006E006484021DB
:1009D000FFF7CAFE034B00221A700420FFF76CFEDB
:1009E00080BD00BF030000200014014080B500AFAF
:1009F0000820FFF73DFE0346002B17D00C4B1B7859
:100A0000002B08D10B484FF40051FFF79FFE084B15
:100A100001221A7007E007484FF40051FFF7A4FEC7
:100A2000034B00221A700820FFF746FE80BD00BF6E
:100A3000020000200014014080B500AF1020FFF735
:100A400017FE0346002B15D00B4B1B78002B07D14C
:100A50000A488021FFF77AFE074B01221A7006E050
:100A600006488021FFF780FE034B00221A701020F9
:100A7000FFF722FE80BD00BF0100002000100140F2
:100A800080B500AF2020FFF7F3FD0346002B15D003
:100A90000B4B1B78002B07D10A484021FFF756FE6D
:100AA000074B01221A7006E006484021FFF75CFE62
:100AB000034B00221A702020FFF7FEFD80BD00BF0F
:100AC000000000200010014080B487B000AF7860C3
:100AD00000237B6100233B610F23FB607B68DB7895
:100AE000002B38D0264BDB68DB4303F4E0631B0AA2
:100AF0007B617B69C3F104033B617B69FA6822FA7D
:100B000003F3FB607B685B781A463B6902FA03F3E8
:100B10007B617B689B781A46FB6813407A691343B4
:100B20007B617B691B017B6116497B681B787A6955
:100B3000D2B20B4483F80023124B7A681278520920
:100B4000D2B27968097801F01F01012000FA01F1A1
:100B500043F822100EE00B4B7A6812785209D2B299
:100B60007968097801F01F01012000FA01F12032B3
:100B700043F822101C37BD465DF8047B704700BF68
:080B800000ED00E000E100E0DF
:0400000508000000EF
:00000001FF
