:020000040800F2
:100000002004002081020008E1020008E10200084B
:10001000E1020008E1020008E1020008000000001F
:10002000000000000000000000000000E1020008E5
:10003000E102000800000000E1020008E1020008FF
:10004000E1020008E1020008E1020008E102000804
:10005000E1020008E1020008E1020008E1020008F4
:10006000E1020008E1020008E1020008E1020008E4
:10007000E1020008E1020008E1020008E1020008D4
:10008000E1020008E1020008E1020008E1020008C4
:10009000E1020008E1020008E1020008E1020008B4
:1000A000E1020008E1020008E1020008E1020008A4
:1000B000E1020008E1020008E1020008E102000894
:1000C000E1020008E1020008E1020008E102000884
:1000D000E1020008E1020008E1020008E102000874
:1000E000E1020008E1020008E1020008000000004F
:1000F0000000000000000000000000000000000000
:1001000000000000000000005FF808F180B500AFBB
:10011000154B154A126842F001021A60124A124B3E
:100120005968124B0B4053600F4A0F4B1B6823F06A
:10013000847323F4803313600B4B0B4A126822F450
:1001400080221A60084B084A526822F4FE025A6064
:10015000054B4FF41F029A6000F00CF8044B4FF06F
:1001600000629A6080BD00BF001002400000FFF8EE
:1001700000ED00E080B500AF00F002F880BD00BFE8
:1001800080B483B000AF00237B6000233B603A4B18
:10019000394A126842F480321A60374B1B6803F404
:1001A00000333B607B6801337B603B68002B03D1ED
:1001B0007B68B3F5A06FF0D12F4B1B6803F40033BD
:1001C000002B02D001233B6001E000233B603B6831
:1001D000012B4BD1294B294A126842F010021A60B8
:1001E000264B264A126822F003021A60234B234A48
:1001F000126842F002021A601F4B1F4A52685A608E
:100200001D4B1D4A52685A601B4B1B4A526842F4F0
:1002100080625A60184B184A526822F47C125A6065
:10022000154B154A526842F4E8125A60124B124AB2
:10023000126842F080721A6000BF0F4B1B6803F017
:100240000073002BF9D00C4B0B4A526822F00302CA
:100250005A60094B084A526842F002025A6000BFD5
:10026000054B5B6803F00C03082BF9D10C37BD4636
:100270005DF8047B704700BF001002400020024080
:1002800080B582B000AF114B7B60114B3B6007E043
:100290003B681A1D3A607A68111D796012681A600D
:1002A0003A680C4B9A42F3D30B480C494FF00002CA
:1002B0008842B8BF40F8042BFFF6FAAFFFF726FFDD
:1002C00000F078FA0837BD4680BD00BF300A00084C
:1002D000000000200000002000000020200000207E
:1002E00080B400AFFEE700BF80B489B000AF786093
:1002F00039600023FB6100233B610023BB610023C5
:10030000FB6000237B610023BB603B68DB7803F06C
:100310000F03FB613B68DB7803F01003002B04D074
:100320003B689B78FA691343FB613B681B88DBB22F
:10033000002B44D07B681B687B610023BB6138E0E5
:10034000BB69012202FA03F3FB603B681B881A4673
:10035000FB6813403B613A69FB689A4226D1BB694E
:100360009B00FB60FB680F2202FA03F3BB60BB68D3
:10037000DB437A6913407B61FB68FA6902FA03F395
:100380007A6913437B613B68DB78282B05D1BB6915
:1003900001229A407B685A6108E03B68DB78482B71
:1003A00004D1BB6901229A407B681A61BB690133A1
:1003B000BB61BB69072BC3D97B687A691A603B684C
:1003C0001B88FF2B46D97B685B687B610023BB6180
:1003D0003AE0BB690833012202FA03F3FB603B6891
:1003E0001B881A46FB6813403B613A69FB689A42D6
:1003F00027D1BB699B00FB60FB680F2202FA03F365
:10040000BB60BB68DB437A6913407B61FB68FA69B8
:1004100002FA03F37A6913437B613B68DB78282B8C
:1004200005D1BB69083301229A407B685A613B6859
:10043000DB78482B05D1BB69083301229A407B68E1
:100440001A61BB690133BB61BB69072BC1D97B68EA
:100450007A695A602437BD465DF8047B704700BF57
:1004600080B483B000AF78600B467B807A887B686D
:100470001A610C37BD465DF8047B704780B483B0C9
:1004800000AF78600B467B807A887B685A610C37B6
:10049000BD465DF8047B704780B500AF024810216F
:1004A000FFF7DEFF80BD00BF0008014080B500AF50
:1004B00002481021FFF7E2FF80BD00BF00080140A5
:1004C00080B582B000AF0346FB7100BF0E48022129
:1004D00000F048FA0346002BF8D0FB799BB20A489B
:1004E000194600F023FA00BF0748012100F03AFA4C
:1004F0000346002BF8D0044800F026FA0346DBB28E
:1005000018460837BD4680BD0030014080B500AFB9
:10051000A520FFF7D5FF0346184680BD80B582B001
:1005200000AF0520012100F07FF94FF48050012138
:1005300000F07AF9A023BB800123BB711823FB7163
:100540003B1D0D481946FFF7CFFE4023BB80042317
:10055000FB713B1D08481946FFF7C6FE1023BB8000
:100560001023FB713B1D04481946FFF7BDFEFFF742
:1005700093FF0837BD4680BD0008014080B586B0B6
:1005800000AF0023BB804FF48273FB8000233B81CC
:1005900002237B810123BB814FF40073FB8108237D
:1005A0003B8200237B820723BB823B1D0548194603
:1005B00000F058F90348012100F098F91837BD46BA
:1005C00080BD00BF0030014080B500AFFFF76EFF77
:1005D0000620FFF775FFFFF75FFF80BD80B582B093
:1005E00000AF7860FFF758FFFFF760FF9F20FFF72D
:1005F00067FFFFF78BFF03461A467B681A70FFF709
:1006000085FF03461A467B685A70FFF77FFF034653
:100610001A467B689A70FFF73FFF0837BD4680BDDA
:1006200080B586B000AFF860B9601346FB71002357
:10063000BB75FFF7C9FFFFF72FFFFFF737FF02205A
:10064000FFF73EFFFB6803F47F031B0CDBB2184689
:10065000FFF736FFFB6803F47F431B0ADBB2184643
:10066000FFF72EFFFB68DBB21846FFF729FF0023D8
:10067000FB7509E0FB7DBA6813441B781846FFF749
:100680001FFFFB7D0133FB75FA7DFB799A42F1D3A5
:10069000FFF702FF00F076F80123BB75BB7D18461B
:1006A0001837BD4680BD00BF90B587B000AFF86079
:1006B000B9601346FB710023BB75FFF785FFFFF799
:1006C000EBFEFFF7F3FE0320FFF7FAFEFB6803F4EF
:1006D0007F031B0CDBB21846FFF7F2FEFB6803F446
:1006E0007F431B0ADBB21846FFF7EAFEFB68DBB26A
:1006F0001846FFF7E5FE0023FB7509E0FB7DBA68AD
:10070000D418FFF703FF03462370FB7D0133FB750D
:10071000FA7DFB799A42F1D3FFF7BEFE00F032F882
:100720000123BB75BB7D18461C37BD4690BD00BF7D
:1007300080B582B000AF7860FFF746FFFFF7ACFEF0
:10074000FFF7B4FED820FFF7BBFE7B6803F47F03FE
:100750001B0CDBB21846FFF7B3FE7B6803F47F4344
:100760001B0ADBB21846FFF7ABFE7B68DBB218460C
:10077000FFF7A6FEFFF790FE00F004F80837BD462D
:1007800080BD00BF80B582B000AF0023FB71FFF7D2
:100790008DFE0520FFF794FEFFF7B8FE0346FB71C0
:1007A000FB7903F00103002BF6D1FFF775FE083744
:1007B000BD4680BD80B588B000AF0023BB61FFF7A8
:1007C000ADFEFFF7DBFE3B461846FFF707FF0023B1
:1007D0007B6113480021102200F0E0F8114800214D
:1007E000102200F0DBF80023FB7706E0FB7F0C4AC9
:1007F000F97FD154FB7F0133FB77FB7F0F2BF5D9BA
:100800007869FFF795FF786905491022FFF708FF1F
:10081000786904491022FFF747FFFF23FB77FEE7C3
:10082000000000201000002080B483B000AF78608A
:100830000B46FB70FB78002B06D0094B084A9169E8
:100840007A680A439A6106E0054B054A91697A681D
:10085000D2430A409A610C37BD465DF8047B70476D
:100860000010024080B485B000AF7860396000238A
:10087000FB817B681B88FB81FB8903F44153FB816F
:100880003B681A883B685B8813439AB23B689B8835
:1008900013439AB23B68DB8813439AB23B681B89C7
:1008A00013439AB23B685B8913439AB23B689B89B6
:1008B00013439AB23B68DB8913439AB2FB89134313
:1008C000FB817B68FA891A807B689B8B9BB223F43F
:1008D00000639AB27B689A833B681A8A7B681A82A3
:1008E0001437BD465DF8047B704700BF80B483B009
:1008F00000AF78600B46FB70FB78002B08D07B685C
:100900001B889BB243F040039AB27B681A8007E0D1
:100910007B681B889BB223F040039AB27B681A80E5
:100920000C37BD465DF8047B704700BF80B483B0D0
:1009300000AF78600B467B807B687A889A810C37A1
:10094000BD465DF8047B704780B483B000AF78602B
:100950007B689B899BB218460C37BD465DF8047BCB
:10096000704700BF80B485B000AF78600B467B80D5
:100970000023FB737B681B899AB27B8813409BB270
:10098000002B02D00123FB7301E00023FB73FB7BF0
:1009900018461437BD465DF8047B7047F0B48407F1
:1009A00043D0541E002A3ED0CDB2034603E0621E5F
:1009B000002C38D0144603F8015B9A07F7D1032CBA
:1009C0002AD9CDB245EA05250F2C45EA054515D9AA
:1009D000A4F110073F0903F1100606EB07161A46AB
:1009E000156055609560D5601032B242F8D104F0C0
:1009F0000F040137032C03EB07130DD91E462246C3
:100A0000043A032A46F8045BFAD8221F22F00302B4
:100A10000432134404F003042CB1C9B21C4403F89B
:100A2000011BA342FBD1F0BC704714460346C6E746
:0400000508000000EF
:00000001FF
