:020000040800F2
:1000000000040020A90200080903000809030008F1
:1000100009030008090300080903000800000000A4
:1000200000000000000000000000000009030008BC
:100030000903000800000000090300080903000884
:100040000903000809030008090300080903000860
:100050000903000809030008090300080903000850
:100060000903000809030008090300080903000840
:100070000903000809030008090300080903000830
:100080000903000809030008090300080903000820
:100090000903000809030008090300080903000810
:1000A0000903000809030008090300080903000800
:1000B00009030008090300080903000809030008F0
:1000C00009030008090300080903000809030008E0
:1000D00009030008090300080903000809030008D0
:1000E00009030008090300080903000809030008C0
:1000F00009030008090300080903000809030008B0
:10010000090300080903000809030008090300089F
:10011000090300080903000809030008090300088F
:10012000090300080903000809030008090300087F
:100130005FF808F180B500AF154B154A126842F020
:1001400001021A60124A124B5968124B0B4053605D
:100150000F4A0F4B1B6823F0847323F48033136022
:100160000B4B0B4A126822F480221A60084B084A93
:10017000526822F4FE025A60054B4FF41F029A6047
:1001800000F00CF8044B4FF000629A6080BD00BF95
:10019000001002400000FFF800ED00E080B500AF65
:1001A00000F002F880BD00BF80B483B000AF002330
:1001B0007B6000233B603A4B394A126842F480323C
:1001C0001A60374B1B6803F400333B607B680133D4
:1001D0007B603B68002B03D17B68B3F5A06FF0D147
:1001E0002F4B1B6803F40033002B02D001233B602C
:1001F00001E000233B603B68012B4BD1294B294A8E
:10020000126842F010021A60264B264A126822F049
:1002100003021A60234B234A126842F002021A605A
:100220001F4B1F4A52685A601D4B1D4A52685A6044
:100230001B4B1B4A526842F480625A60184B184AA2
:10024000526822F47C125A60154B154A526842F4E7
:10025000E8125A60124B124A126842F080721A6019
:1002600000BF0F4B1B6803F00073002BF9D00C4B41
:100270000B4A526822F003025A60094B084A52683E
:1002800042F002025A6000BF054B5B6803F00C03AA
:10029000082BF9D10C37BD465DF8047B704700BFD1
:1002A000001002400020024080B582B000AF114B28
:1002B0007B60114B3B6007E03B681A1D3A607A682F
:1002C000111D796012681A603A680C4B9A42F3D398
:1002D0000B480C494FF000028842B8BF40F8042B8D
:1002E000FFF6FAAFFFF726FF00F0EAF80837BD4641
:1002F00080BD00BF2C060008000000200000002088
:10030000000000200000002080B400AFFEE700BF26
:1003100080B489B000AF786039600023FB610023AE
:100320003B610023BB610023FB6000237B61002352
:10033000BB603B68DB7803F00F03FB613B68DB7855
:1003400003F01003002B04D03B689B78FA69134339
:10035000FB613B681B88DBB2002B44D07B681B68C9
:100360007B610023BB6138E0BB69012202FA03F321
:10037000FB603B681B881A46FB6813403B613A6987
:10038000FB689A4226D1BB699B00FB60FB680F2289
:1003900002FA03F3BB60BB68DB437A6913407B61FD
:1003A000FB68FA6902FA03F37A6913437B613B68DD
:1003B000DB78282B05D1BB6901229A407B685A6102
:1003C00008E03B68DB78482B04D1BB6901229A40E6
:1003D0007B681A61BB690133BB61BB69072BC3D959
:1003E0007B687A691A603B681B88FF2B46D97B685B
:1003F0005B687B610023BB613AE0BB690833012283
:1004000002FA03F3FB603B681B881A46FB68134043
:100410003B613A69FB689A4227D1BB699B00FB604C
:10042000FB680F2202FA03F3BB60BB68DB437A6907
:1004300013407B61FB68FA6902FA03F37A6913439C
:100440007B613B68DB78282B05D1BB69083301222F
:100450009A407B685A613B68DB78482B05D1BB69C1
:10046000083301229A407B681A61BB690133BB6182
:10047000BB69072BC1D97B687A695A602437BD46AE
:100480005DF8047B704700BF80B483B000AF786034
:100490000B467B807A887B681A610C37BD465DF815
:1004A000047B704780B483B000AF78600B467B80DC
:1004B0007A887B685A610C37BD465DF8047B7047CB
:1004C00080B582B000AF00F059F81B48402100F021
:1004D00091F81948802100F08DF818484FF4005128
:1004E00000F088F81548402100F084F800237B6074
:1004F00002E07B6801337B607B68B3F5A00FF8DB1B
:100500000D48402100F084F80B48802100F080F86D
:100510000A484FF4005100F07BF80848402100F0F1
:1005200077F800237B6002E07B6801337B607B68A7
:10053000B3F5A00FF8DBC8E700100140001401403C
:1005400080B483B000AF78600B46FB70FB78002B63
:1005500006D0094B084A91697A680A439A6106E015
:10056000054B054A91697A68D2430A409A610C3773
:10057000BD465DF8047B70470010024080B582B034
:1005800000AF30200121FFF7DBFF0323BB711023F5
:10059000FB714023BB803B1D14481946FFF7B8FE92
:1005A0000323BB711023FB718023BB803B1D0F48CD
:1005B0001946FFF7ADFE0323BB711023FB714FF407
:1005C0000053BB803B1D0A481946FFF7A1FE0323D9
:1005D000BB711023FB714023BB803B1D04481946AF
:1005E000FFF796FE0837BD4680BD00BF00100140F2
:1005F0000014014080B582B000AF78600B467B806C
:100600007B8878681946FFF73FFF0837BD4680BDF5
:1006100080B582B000AF78600B467B807B887868BD
:0C0620001946FFF73FFF0837BD4680BDBC
:0400000508000000EF
:00000001FF
